:100000000C9434000C9446000C9446000C9446006A
:100010000C9446000C9446000C9446000C94460048
:100020000C9446000C9446000C9446000C94460038
:100030000C9446000C9446000C9446000C94460028
:100040000C9446000C9446000C9446000C94460018
:100050000C9446000C9446000C9446000C94460008
:100060000C9446000C94460011241FBECFEFD8E03C
:10007000DEBFCDBF21E0A0E0B1E001C01D92A03005
:10008000B207E1F70E9459010C940D020C94000094
:10009000CF93DF93CDB7DEB784E290E024E230E087
:1000A000F90120812160FC01208385E290E025E2B6
:1000B00030E0F90120812160FC0120838AE290E098
:1000C0002AE230E0F90120812B7FFC0120838BE2C2
:1000D00090E02BE230E0F90120812460FC012083D4
:1000E00084E290E024E230E0F90120812260FC010A
:1000F000208385E290E025E230E0F9012081226052
:10010000FC01208387E290E027E230E0F9012081C2
:100110002E7FFC0120838AE790E02AE730E0F90196
:1001200020812068FC0120838AE790E02AE730E004
:10013000F90120812760FC0120838CE790E020E614
:10014000FC01208381EC90E021EC30E0F90120817A
:100150002861FC01208382EC90E022EC30E0F90180
:1001600020812660FC01208384EC90E024EC30E0C8
:10017000F901208131812766FC0131832083000051
:10018000DF91CF910895CF93DF931F92CDB7DEB764
:100190008983000080EC90E0FC018081882F90E052
:1001A00080729927892BB1F386EC90E02981FC01BC
:1001B000208300000F90DF91CF910895CF93DF93BC
:1001C00000D0CDB7DEB79A83898384E890E0298197
:1001D0003A81FC013183208380E890E0FC011082A9
:1001E00081E890E021E830E0F90120812360FC0102
:1001F0002083000086E390E0FC018081882F90E05E
:1002000081709927892BB1F380E890E0FC0110827E
:1002100081E890E0FC01108286E390E021E0FC019F
:10022000208300000F900F90DF91CF910895CF931E
:10023000DF931F92CDB7DEB789838AE290E02AE28E
:1002400030E0F90120812064FC01208387E490E004
:100250002981FC01208384E490E023E8FC012083D1
:1002600085E490E023E0FC01208380E00F90DF91A3
:10027000CF910895CF93DF93CDB7DEB78AE790E0B3
:100280002AE730E0F90120812064FC01208300008E
:100290008AE790E0FC018081882F90E080719927A7
:1002A000892BB1F389E790E0FC018081DF91CF9148
:1002B0000895CF93DF93CDB7DEB76B970FB6F89461
:1002C000DEBF0FBECDBF8CE396EF9C838B8383E8AC
:1002D0009FEF9E838D832D813E818B819C81A9011F
:1002E000481B590BCA01892F99278F8318861A86B4
:1002F00019860E9448000E943A0188878885282F25
:1003000030E08F81882F90E0289FA001299F500D19
:10031000389F500D11249A018B819C81820F931F6D
:100320009C878B878885882F90E09E01235F3F4FB5
:100330004AE050E0B9010E94CD011A82198210C032
:100340009E01235F3F4F89819A81820F931FFC0199
:1003500080810E94C30089819A8101969A83898352
:100360009E01235F3F4F89819A81820F931FFC0179
:100370008081882329F788850E94170185E290E013
:1003800025E230E0F901308122E02327FC012083BF
:100390008B859C850E94DE00AECF4532510520F44E
:1003A000423010F00C94D801FB011082CB0108956B
:1003B000BB274A3031F4992322F4BDE29095819510
:1003C0009F4F0C94E401BB27FB015527AA27880FF8
:1003D000991FAA1FA41710F0A41B83955051B9F7B9
:1003E000A05DAA3308F0A95DA193009779F7B11138
:1003F000B1931192CB010C94FD01DC01FC01672F3C
:1004000071917723E1F7329704C07C916D937083EB
:0E0410006291AE17BF07C8F30895F894FFCFAE
:00000001FF
