S00D0000536C6565702E737265631E
S11300000C9434000C943C010C9449000C94490069
S11300100C9449000C9449000C9449000C94490038
S11300200C9449000C9449000C9449000C94490028
S11300300C9449000C9449000C9449000C94490018
S11300400C9449000C9449000C9449000C94490008
S11300500C9449000C9449000C9449000C944900F8
S11300600C9449000C94490011241FBECFEFD8E032
S1130070DEBFCDBF11E0A0E0B1E0E2E1F5E002C0F7
S113008005900D92A230B107D9F70E9461010C943A
S113009087020C940000CF93DF93CDB7DEB784E2E0
S11300A090E021E0FC01208385E290E021E0FC0166
S11300B020838AE290E02AE230E0F90120812B7F5C
S11300C0FC0120830000DF91CF910895CF93DF934B
S11300D0CDB7DEB789E690E029E630E0F90120816A
S11300E02260FC0120838DE390E02DE330E0F901F0
S11300F020812160FC01208378940000DF91CF915E
S11301000895CF93DF93CDB7DEB72E970FB6F8944B
S1130110DEBF0FBECDBF80910001882309F490C0DB
S113012083E590E023E530E0F9012081217F24601C
S1130130FC01208383E590E023E530E0F901208190
S11301402160FC012083889585E290E025E230E07F
S1130150F90120812160FC01208380E090E0A8E483
S1130160B3E489839A83AB83BC8320E030E04AE71D
S113017053E469817A818B819C810E94F201DC01C4
S1130180CB018D839E83AF83B88720E030E040E8C5
S11301905FE36D817E818F8198850E946C01882345
S11301A02CF481E090E09A8789873FC020E03FEFFC
S11301B04FE757E46D817E818F8198850E94ED0120
S11301C018164CF520E030E040E251E469817A8170
S11301D08B819C810E94F201DC01CB01BC01CD0129
S11301E00E947101DC01CB019A8789870FC089E1E4
S11301F090E09C878B878B859C850197F1F79C8782
S11302008B8789859A8501979A87898789859A85B5
S1130210892B69F727C06D817E818F8198850E9423
S11302207101DC01CB019A87898789859A859E872C
S11302308D878D859E850197F1F79E878D8712C0E6
S113024083E590E023E530E0F90120812E7FFC0175
S1130250208385E290E025E230E0F90120812E7FC1
S1130260FC01208300002E960FB6F894DEBF0FBE6B
S1130270CDBFDF91CF9108951F920F9200905F0040
S11302800F9211248F939F93EF93FF93CF93DF9358
S1130290CDB7DEB79091000181E0892780930001FA
S11302A085E390E0FC0110820000DF91CF91FF9183
S11302B0EF919F918F910F9000925F000F901F908C
S11302C01895CF93DF93CDB7DEB70E944B000E9401
S11302D066000E948100FDCF0E94A00108F481E025
S11302E008950E94CC0188F09F5798F0B92F992760
S11302F0B751B0F0E1F0660F771F881F991F1AF00D
S1130300BA95C9F714C0B13091F00E94E601B1E08A
S113031008950C94E601672F782F8827B85F39F089
S1130320B93FCCF3869577956795B395D9F73EF4A5
S113033090958095709561957F4F8F4F9F4F08954D
S1130340990F0008550FAA0BE0E8FEEF16161706E2
S1130350E807F907C0F012161306E407F50798F04A
S1130360621B730B840B950B39F40A2661F0232B63
S1130370242B252B21F408950A2609F4A140A695DF
S11303808FEF811D811D089557FD9058440F551F0F
S113039059F05F3F71F04795880F97FB991F61F003
S11303A09F3F79F087950895121613061406551F7A
S11303B0F2CF4695F1DF08C0161617061806991FE6
S11303C0F1CF86957105610508940895E894BB27DB
S11303D066277727CB0197F908950E94A00108F4B6
S11303E08FEF08950E9405020C9476020E94680221
S11303F038F00E946F0220F0952311F00C945F02F4
S11304000C94650211240C94E7010E94C40170F35A
S1130410959FC1F3950F50E0551F629FF001729FA5
S1130420BB27F00DB11D639FAA27F00DB11DAA1FB4
S1130430649F6627B00DA11D661F829F2227B00D01
S1130440A11D621F739FB00DA11D621F839FA00D8C
S1130450611D221F749F3327A00D611D231F849FDC
S1130460600D211D822F762F6A2F11249F57504033
S11304709AF0F1F088234AF0EE0FFF1FBB1F661FAE
S1130480771F881F91505040A9F79E3F510580F077
S11304900C945F020C94E7015F3FE4F3983ED4F3BD
S11304A0869577956795B795F795E7959F5FC1F71B
S11304B0FE2B880F911D9695879597F9089597F9C6
S11304C09F6780E870E060E008959FEF80EC0895F6
S11304D000240A941616170618060906089500241F
S11304E00A9412161306140605060895092E039499
S11304F0000C11F4882352F0BB0F40F4BF2B11F40D
S113050060FF04C06F5F7F4F8F4F9F4F0895F89433
S1050510FFCF17
S10505120100E2
S9030000FC
