S016000070776D5F67656E65726174696F6E2E737265632F
S11300000C9434000C943E000C943E000C943E007E
S11300100C943E000C943E000C943E000C943E0064
S11300200C943E000C943E000C943E000C943E0054
S11300300C943E000C943E000C943E000C943E0044
S11300400C943E000C943E000C943E000C943E0034
S11300500C943E000C943E000C943E000C943E0024
S11300600C943E000C943E0011241FBECFEFD8E048
S1130070DEBFCDBF0E9457000C945C000C940000BE
S11300808AB18B7F8AB984B1816084B985B181607A
S113009085B98BB184608BB908958AB180648AB9BB
S11300A084E687BD83E884BD83E085BD08950E940E
S10F00B040000E944D00FFCFF894FFCFE9
S9030000FC
