S00D0000736C6565702E73726563FE
S11300000C9434000C9451000C943E000C943E006B
S11300100C943E000C943E000C943E000C943E0064
S11300200C943E000C943E000C943E000C943E0054
S11300300C943E000C943E000C943E000C943E0044
S11300400C943E000C943E000C943E000C943E0034
S11300500C943E000C943E000C943E000C943E0024
S11300600C943E000C943E0011241FBECFEFD8E048
S1130070DEBFCDBF0E9464000C9469000C940000A4
S113008081E084B985B98AB18B7F8AB90895E9E69C
S1130090F0E08081826080838DB381608DBB789431
S11300A008951F920F920FB60F9211248F939F936E
S11300B095B181E0892785B915BA9F918F910F90E9
S11300C00FBE0F901F9018950E9440000E94470099
S10900D0FFCFF894FFCFFE
S9030000FC
