:100000000C9434000C9451000C9451000C94510049
:100010000C9451000C9451000C9451000C947001FC
:100020000C9451000C9451000C9451000C9451000C
:100030000C9451000C9451000C9437020C94510014
:100040000C9451000C9451000C94D4000C94510069
:100050000C9451000C9409020C9451000C94510022
:100060000C9451000C94510011241FBECFEFD8E026
:10007000DEBFCDBF11E0A0E0B1E0E4E1FBE002C0F3
:1000800005900D92A230B107D9F721E0A2E0B1E0CE
:1000900001C01D92AD30B207E1F70E94D7020C9467
:1000A00088050C940000CF93DF93CDB7DEB784E2D0
:1000B00090E024E230E0F90120812260FC012083FD
:1000C00085E290E025E230E0F90120812260FC0128
:1000D00020838AE290E02AE230E0F90120812B7F40
:1000E000FC0120838BE290E02BE230E0F9012081DB
:1000F0002460FC0120838AE290E02AE230E0F901EA
:1001000020812064FC01208384E490E023E8FC014A
:10011000208385E490E023E0FC0120838EE690E0DC
:100120002EE630E0F90120812260FC01208387E285
:1001300090E027E230E0F90120812E7FFC0120834E
:100140008AE790E02FEAFC0120838CE790E020E62C
:10015000FC0120838AE790E02AE730E0F901208162
:100160002064FC01208381EC90E021EC30E0F90177
:1001700020812869FC01208382EC90E022EC30E0B1
:10018000F90120812660FC01208384EC90E024ECBE
:1001900030E0F901208131812766FC013183208321
:1001A0000000DF91CF9108951F920F9200905F00A1
:1001B0000F9211242F933F935F936F937F938F93AD
:1001C0009F93AF93BF93EF93FF93CF93DF931F92D0
:1001D000CDB7DEB786EC90E0FC0180818983898110
:1001E0008823D9F080910201882F90E0875F9E4F8D
:1001F0002981FC01208380910201882F90E00196E3
:1002000023E030E0B9010E94FA048093020181E00A
:1002100090E0909305018093040100000F90DF911E
:10022000CF91FF91EF91BF91AF919F918F917F916E
:100230006F915F913F912F910F9000925F000F900F
:100240001F901895CF93DF93CDB7DEB789E091E08B
:100250000E942205DF91CF910895CF93DF931F92E3
:10026000CDB7DEB78983000080EC90E0FC0180818F
:10027000882F90E080729927892BB1F386EC90E06B
:100280002981FC01208300000F90DF91CF91089518
:10029000CF93DF93CDB7DEB780EB90E020EB30E07B
:1002A000F90120812260FC01208383EB90E02FEF95
:1002B000FC01208380E790E020E730E0F901208115
:1002C0002260FC01208381EB90E021EB30E0F9011A
:1002D00020812760FC0120830000DF91CF910895E9
:1002E0001F920F9200905F000F9211242F933F9363
:1002F0004F935F936F937F938F939F93AF93BF932E
:10030000EF93FF93CF93DF9300D0CDB7DEB780910B
:1003100003018F5F80930301809103018C3709F003
:1003200061C08091040190910501892B59F00E94D0
:100330002201909301018093000110920501109217
:1003400004012CC080910C01882F90E0092E000C34
:10035000AA0BBB0BBC01CD010E940104DC01CB0147
:100360002BE734E14EE650E4BC01CD010E948D0440
:10037000DC01CB0120E030E048E452E4BC01CD01D7
:100380000E94F202DC01CB01BC01CD010E94D0032E
:10039000DC01CB0190930101809300018091000169
:1003A000909101014AE050E066E071E00E94400552
:1003B0001A8219820DC089819A818A5F9E4FFC0141
:1003C00080810E942D0189819A8101969A83898377
:1003D00089819A818A5F9E4FFC018081882359F729
:1003E0001092030100000F900F90DF91CF91FF91C9
:1003F000EF91BF91AF919F918F917F916F915F919D
:100400004F913F912F910F9000925F000F901F909E
:1004100018951F920F9200905F000F9211242F9356
:100420003F938F939F93EF93FF93CF93DF93CDB73A
:10043000DEB789E790E0FC01808180930C018AE7B8
:1004400090E02AE730E0F90120812064FC0120835C
:100450000000DF91CF91FF91EF919F918F913F919C
:100460002F910F9000925F000F901F9018951F9290
:100470000F9200905F000F9211242F938F939F9300
:10048000EF93FF93CF93DF93CDB7DEB787E490E090
:1004900020910C01FC0120830000DF91CF91FF919E
:1004A000EF919F918F912F910F9000925F000F908D
:1004B0001F901895CF93DF93CDB7DEB728970FB66F
:1004C000F894DEBF0FBECDBF98878F838F8198854C
:1004D000880F991FCC01A0E0B0E0BC01CD010E94C3
:1004E000FF03DC01CB019C01AD0160E070E080E81E
:1004F0009FE30E945E03DC01CB0189839A83AB8377
:10050000BC8320E034E244E75BE469817A818B813B
:100510009C810E948D04DC01CB0120E030E040E8AA
:1005200052E4BC01CD010E945E03DC01CB01BC01A1
:10053000CD010E94D003DC01CB019E838D8384E832
:1005400090E02D813E8120953095FC013183208300
:1005500080E890E0FC01108281E890E021E830E042
:10056000F90120812360FC012083000086E390E0F4
:10057000FC018081882F90E081709927892BB1F34D
:1005800080E890E0FC01108281E890E0FC0110829C
:1005900086E390E021E0FC012083000028960FB65E
:1005A000F894DEBF0FBECDBFDF91CF910895CF93FA
:1005B000DF93CDB7DEB70E9448010E9453007894C4
:1005C00085E290E025E230E0F901308122E0232746
:1005D000FC01208380910001909101010E945A0248
:1005E000EFCF5058BB27AA270E9409030C9453044D
:1005F0000E94450438F00E944C0420F039F49F3FDB
:1006000019F426F40C9442040EF4E095E7FB0C94E4
:100610003C04E92F0E94640458F3BA176207730779
:100620008407950720F079F4A6F50C9486040EF45F
:10063000E0950B2EBA2FA02D0B01B90190010C01F2
:10064000CA01A0011124FF27591B99F0593F50F40A
:10065000503E68F11A16F040A22F232F342F442762
:10066000585FF3CF469537952795A795F04053955A
:10067000C9F77EF41F16BA0B620B730B840BBAF02A
:100680009150A1F0FF0FBB1F661F771F881FC2F795
:100690000EC0BA0F621F731F841F48F487957795A9
:1006A0006795B795F7959E3F08F0B0CF9395880F63
:1006B00008F09927EE0F9795879508950E94720389
:1006C0000C9453040E944C0458F00E94450440F0DE
:1006D00029F45F3F29F00C943C0451110C948704D9
:1006E0000C9442040E94640468F39923B1F35523E7
:1006F00091F3951B550BBB27AA2762177307840735
:1007000038F09F5F5F4F220F331F441FAA1FA9F3CA
:1007100035D00E2E3AF0E0E832D091505040E695B8
:10072000001CCAF72BD0FE2F29D0660F771F881F19
:10073000BB1F261737074807AB07B0E809F0BB0B0C
:10074000802DBF01FF2793585F4F3AF09E3F510520
:1007500078F00C943C040C9487045F3FE4F3983EDB
:10076000D4F3869577956795B795F7959F5FC9F709
:10077000880F911D9695879597F90895E1E0660F8A
:10078000771F881FBB1F621773078407BA0720F003
:10079000621B730B840BBA0BEE1F88F7E09508956C
:1007A0000E946C0488F09F5798F0B92F9927B75191
:1007B000B0F0E1F0660F771F881F991F1AF0BA9505
:1007C000C9F714C0B13091F00E948604B1E00895D9
:1007D0000C948604672F782F8827B85F39F0B93FCB
:1007E000CCF3869577956795B395D9F73EF49095B8
:1007F0008095709561957F4F8F4F9F4F0895E89436
:1008000009C097FB3EF490958095709561957F4F58
:100810008F4F9F4F9923A9F0F92F96E9BB27939506
:10082000F695879577956795B795F111F8CFFAF416
:10083000BB0F11F460FF1BC06F5F7F4F8F4F9F4F47
:1008400016C0882311F096E911C0772321F09EE8A5
:10085000872F762F05C0662371F096E8862F70E00B
:1008600060E02AF09A95660F771F881FDAF7880FE5
:100870009695879597F9089597F99F6780E870E0B6
:1008800060E008959FEF80EC089500240A94161606
:10089000170618060906089500240A94121613066E
:1008A000140605060895092E0394000C11F48823FC
:1008B00052F0BB0F40F4BF2B11F460FF04C06F5F18
:1008C0007F4F8F4F9F4F089557FD9058440F551FEE
:1008D00059F05F3F71F04795880F97FB991F61F0C2
:1008E0009F3F79F087950895121613061406551F39
:1008F000F2CF4695F1DF08C0161617061806991FA5
:10090000F1CF86957105610508940895E894BB2799
:1009100066277727CB0197F908950E94A0040C94CD
:1009200053040E94450438F00E944C0420F09523A3
:1009300011F00C943C040C94420411240C94870490
:100940000E94640470F3959FC1F3950F50E0551F0A
:10095000629FF001729FBB27F00DB11D639FAA2714
:10096000F00DB11DAA1F649F6627B00DA11D661F63
:10097000829F2227B00DA11D621F739FB00DA11D84
:10098000621F839FA00D611D221F749F3327A00D3E
:10099000611D231F849F600D211D822F762F6A2FDA
:1009A00011249F5750409AF0F1F088234AF0EE0F3F
:1009B000FF1FBB1F661F771F881F91505040A9F76C
:1009C0009E3F510580F00C943C040C9487045F3FDB
:1009D000E4F3983ED4F3869577956795B795F795A8
:1009E000E7959F5FC1F7FE2B880F911D9695879520
:1009F00097F9089597FB072E16F4009407D077FD1A
:100A000009D00E940E0507FC05D03EF49095819513
:100A10009F4F0895709561957F4F0895AA1BBB1B4A
:100A200051E107C0AA1FBB1FA617B70710F0A61BEE
:100A3000B70B881F991F5A95A9F780959095BC010F
:100A4000CD010895FC0188279927E894219120324F
:100A5000E9F3293010F02E30C8F32B3241F02D325B
:100A600039F4689404C00E945605820F911D2191AB
:100A700020532A30C0F31EF4909581959F4F08951E
:100A80004532510520F4423010F00C944B05FB0127
:100A90001082CB010895BB274A3031F4992322F408
:100AA000BDE2909581959F4F0C945F057AE0979FEA
:100AB000902D879F802D910D11240895BB27FB0158
:100AC0005527AA27880F991FAA1FA41710F0A41B47
:100AD00083955051B9F7A05DAA3308F0A95DA193A1
:100AE000009779F7B111B1931192CB010C9478056D
:100AF000DC01FC01672F71917723E1F7329704C085
:100B00007C916D9370836291AE17BF07C8F308950F
:040B1000F894FFCF87
:020B1400F401EA
:00000001FF
