S022000064656C61795F66756E6374696F6E5F7573696E675F74696D65722E7372656329
S11300000C9434000C943E000C943E000C943E007E
S11300100C943E000C943E000C943E000C943E0064
S11300200C943E000C943E000C943E000C943E0054
S11300300C943E000C943E000C943E000C943E0044
S11300400C943E000C943E000C943E000C943E0034
S11300500C943E000C943E000C943E000C943E0024
S11300600C943E000C943E0011241FBECFEFD8E048
S1130070DEBFCDBF0E9458000C9461000C940000B8
S11300808AB18B7F8AB984B1816084B985B181607A
S113009085B98BB184608BB9089516BC14BC85E016
S11300A085BDA89BFECF15BC14BC81E085BB08951B
S11300B00E94400095B181E0892785B90E944D00D6
S10900C0F9CFF894FFCF14
S9030000FC
