:100000000C9434000C943E000C943E000C943E0082
:100010000C943E000C943E000C943E000C943E0068
:100020000C943E000C943E000C943E000C943E0058
:100030000C943E000C943E000C943E000C943E0048
:100040000C943E000C943E000C943E000C943E0038
:100050000C943E000C943E000C943E000C943E0028
:100060000C943E000C943E0011241FBECFEFD8E04C
:10007000DEBFCDBF0E94BF000C94DC000C940000DA
:10008000CF93DF93CDB7DEB784E290E024E230E097
:10009000F90120812160FC01208385E290E025E2C6
:1000A00030E0F90120812E7FFC0120838AE290E07C
:1000B0002AE230E0F90120812B7FFC0120838BE2D2
:1000C00090E02BE230E0F90120812460FC012083E4
:1000D00089E690E029E630E0F90120812260FC0108
:1000E00020838DE390E02DE330E0F9012081216051
:1000F000FC01208378940000DF91CF910895CF9385
:10010000DF93CDB7DEB785E290E025E230E0F9017C
:1001100020812E7FFC01208383E590E023E530E001
:10012000F90120812160FC01208383E590E023E533
:1001300030E0F9012081217F2460FC01208383E5E8
:1001400090E023E530E0F90120812160FC0120836B
:10015000889583E590E023E530E0F90120812E7F4A
:10016000FC01208383E590E023E530E0F901208164
:100170002E7FFC0120830000DF91CF910895CF9363
:10018000DF93CDB7DEB70E94400089E290E0FC012A
:100190008081882F90E088709927892B19F40E941C
:1001A0007F00F3CF85E290E025E230E0F901208185
:0C01B0002160FC012083E9CFF894FFCF10
:00000001FF
